{
  "abi": [
    {
      "inputs": [],
      "stateMutability": "nonpayable",
      "type": "constructor"
    },
    {
      "anonymous": false,
      "inputs": [
        {
          "indexed": true,
          "internalType": "address",
          "name": "keeper",
          "type": "address"
        }
      ],
      "name": "KeeperAdded",
      "type": "event"
    },
    {
      "anonymous": false,
      "inputs": [
        {
          "indexed": true,
          "internalType": "address",
          "name": "token",
          "type": "address"
        },
        {
          "indexed": false,
          "internalType": "uint256",
          "name": "price",
          "type": "uint256"
        },
        {
          "indexed": false,
          "internalType": "uint256",
          "name": "timestamp",
          "type": "uint256"
        }
      ],
      "name": "PriceSet",
      "type": "event"
    },
    {
      "anonymous": false,
      "inputs": [
        {
          "indexed": true,
          "internalType": "address",
          "name": "account",
          "type": "address"
        }
      ],
      "name": "SetGov",
      "type": "event"
    },
    {
      "anonymous": false,
      "inputs": [
        {
          "indexed": true,
          "internalType": "address",
          "name": "token",
          "type": "address"
        }
      ],
      "name": "TokenAdded",
      "type": "event"
    },
    {
      "inputs": [],
      "name": "BASIS_POINTS_DIVISOR",
      "outputs": [
        {
          "internalType": "uint256",
          "name": "",
          "type": "uint256"
        }
      ],
      "stateMutability": "view",
      "type": "function"
    },
    {
      "inputs": [],
      "name": "MAX_SPREAD_BASIS_POINTS",
      "outputs": [
        {
          "internalType": "uint256",
          "name": "",
          "type": "uint256"
        }
      ],
      "stateMutability": "view",
      "type": "function"
    },
    {
      "inputs": [],
      "name": "PRICE_FEED_ERROR",
      "outputs": [
        {
          "internalType": "uint256",
          "name": "",
          "type": "uint256"
        }
      ],
      "stateMutability": "view",
      "type": "function"
    },
    {
      "inputs": [],
      "name": "PRICE_FEED_ERROR_SPREAD",
      "outputs": [
        {
          "internalType": "uint256",
          "name": "",
          "type": "uint256"
        }
      ],
      "stateMutability": "view",
      "type": "function"
    },
    {
      "inputs": [],
      "name": "PRICE_FEED_INACTIVE",
      "outputs": [
        {
          "internalType": "uint256",
          "name": "",
          "type": "uint256"
        }
      ],
      "stateMutability": "view",
      "type": "function"
    },
    {
      "inputs": [
        {
          "internalType": "address",
          "name": "_keeper",
          "type": "address"
        }
      ],
      "name": "addKeeper",
      "outputs": [],
      "stateMutability": "nonpayable",
      "type": "function"
    },
    {
      "inputs": [
        {
          "internalType": "address",
          "name": "",
          "type": "address"
        }
      ],
      "name": "chainLinkFeeds",
      "outputs": [
        {
          "internalType": "address",
          "name": "",
          "type": "address"
        }
      ],
      "stateMutability": "view",
      "type": "function"
    },
    {
      "inputs": [],
      "name": "defaultSpread",
      "outputs": [
        {
          "internalType": "uint256",
          "name": "",
          "type": "uint256"
        }
      ],
      "stateMutability": "view",
      "type": "function"
    },
    {
      "inputs": [
        {
          "internalType": "address",
          "name": "_token",
          "type": "address"
        }
      ],
      "name": "getChainlinkPrice",
      "outputs": [
        {
          "internalType": "uint256",
          "name": "scaledPrice",
          "type": "uint256"
        }
      ],
      "stateMutability": "view",
      "type": "function"
    },
    {
      "inputs": [
        {
          "internalType": "address",
          "name": "_token",
          "type": "address"
        },
        {
          "internalType": "bool",
          "name": "_isMax",
          "type": "bool"
        }
      ],
      "name": "getPrice",
      "outputs": [
        {
          "internalType": "uint256",
          "name": "",
          "type": "uint256"
        }
      ],
      "stateMutability": "view",
      "type": "function"
    },
    {
      "inputs": [],
      "name": "gov",
      "outputs": [
        {
          "internalType": "address",
          "name": "",
          "type": "address"
        }
      ],
      "stateMutability": "view",
      "type": "function"
    },
    {
      "inputs": [
        {
          "internalType": "address",
          "name": "",
          "type": "address"
        }
      ],
      "name": "isKeeper",
      "outputs": [
        {
          "internalType": "bool",
          "name": "",
          "type": "bool"
        }
      ],
      "stateMutability": "view",
      "type": "function"
    },
    {
      "inputs": [
        {
          "internalType": "address",
          "name": "",
          "type": "address"
        }
      ],
      "name": "isWhitelistedToken",
      "outputs": [
        {
          "internalType": "bool",
          "name": "",
          "type": "bool"
        }
      ],
      "stateMutability": "view",
      "type": "function"
    },
    {
      "inputs": [
        {
          "internalType": "address",
          "name": "",
          "type": "address"
        }
      ],
      "name": "lastUpdatedTimestamp",
      "outputs": [
        {
          "internalType": "uint256",
          "name": "",
          "type": "uint256"
        }
      ],
      "stateMutability": "view",
      "type": "function"
    },
    {
      "inputs": [],
      "name": "maxPriceDiff",
      "outputs": [
        {
          "internalType": "uint256",
          "name": "",
          "type": "uint256"
        }
      ],
      "stateMutability": "view",
      "type": "function"
    },
    {
      "inputs": [],
      "name": "maxPriceUpdateDelay",
      "outputs": [
        {
          "internalType": "uint256",
          "name": "",
          "type": "uint256"
        }
      ],
      "stateMutability": "view",
      "type": "function"
    },
    {
      "inputs": [],
      "name": "orderbook",
      "outputs": [
        {
          "internalType": "contract IOrderBook",
          "name": "",
          "type": "address"
        }
      ],
      "stateMutability": "view",
      "type": "function"
    },
    {
      "inputs": [],
      "name": "priceDuration",
      "outputs": [
        {
          "internalType": "uint256",
          "name": "",
          "type": "uint256"
        }
      ],
      "stateMutability": "view",
      "type": "function"
    },
    {
      "inputs": [
        {
          "internalType": "address",
          "name": "",
          "type": "address"
        }
      ],
      "name": "prices",
      "outputs": [
        {
          "internalType": "uint256",
          "name": "",
          "type": "uint256"
        }
      ],
      "stateMutability": "view",
      "type": "function"
    },
    {
      "inputs": [
        {
          "internalType": "address",
          "name": "_account",
          "type": "address"
        }
      ],
      "name": "setGov",
      "outputs": [],
      "stateMutability": "nonpayable",
      "type": "function"
    },
    {
      "inputs": [
        {
          "internalType": "uint256",
          "name": "rate",
          "type": "uint256"
        }
      ],
      "name": "setMaxPriceDiff",
      "outputs": [],
      "stateMutability": "nonpayable",
      "type": "function"
    },
    {
      "inputs": [
        {
          "internalType": "address",
          "name": "_orderbook",
          "type": "address"
        }
      ],
      "name": "setOrderBook",
      "outputs": [],
      "stateMutability": "nonpayable",
      "type": "function"
    },
    {
      "inputs": [
        {
          "internalType": "address[]",
          "name": "_tokens",
          "type": "address[]"
        },
        {
          "internalType": "uint256[]",
          "name": "_prices",
          "type": "uint256[]"
        }
      ],
      "name": "setPrices",
      "outputs": [],
      "stateMutability": "nonpayable",
      "type": "function"
    },
    {
      "inputs": [
        {
          "internalType": "address[]",
          "name": "_tokens",
          "type": "address[]"
        },
        {
          "internalType": "uint256[]",
          "name": "_prices",
          "type": "uint256[]"
        },
        {
          "internalType": "uint256[]",
          "name": "_orders",
          "type": "uint256[]"
        }
      ],
      "name": "setPricesAndExecuteOrders",
      "outputs": [],
      "stateMutability": "nonpayable",
      "type": "function"
    },
    {
      "inputs": [
        {
          "internalType": "address",
          "name": "_token",
          "type": "address"
        },
        {
          "internalType": "address",
          "name": "_chainLinkFeed",
          "type": "address"
        }
      ],
      "name": "setTokenConfig",
      "outputs": [],
      "stateMutability": "nonpayable",
      "type": "function"
    },
    {
      "inputs": [],
      "name": "spreadBasisPointsIfChainError",
      "outputs": [
        {
          "internalType": "uint256",
          "name": "",
          "type": "uint256"
        }
      ],
      "stateMutability": "view",
      "type": "function"
    },
    {
      "inputs": [],
      "name": "spreadBasisPointsIfInactive",
      "outputs": [
        {
          "internalType": "uint256",
          "name": "",
          "type": "uint256"
        }
      ],
      "stateMutability": "view",
      "type": "function"
    },
    {
      "inputs": [
        {
          "internalType": "address",
          "name": "",
          "type": "address"
        }
      ],
      "name": "tokenDecimals",
      "outputs": [
        {
          "internalType": "uint8",
          "name": "",
          "type": "uint8"
        }
      ],
      "stateMutability": "view",
      "type": "function"
    }
  ],
  "bytecode": {
    "object": "0x6080604052662386f26fc10000600155601e60025560146003556101f4600455610e1060055561012c60065534801561003757600080fd5b50600080546001600160a01b03191633179055611194806100596000396000f3fe608060405234801561001057600080fd5b50600436106101c45760003560e01c806376d69760116100f9578063cfad57a211610097578063e64559ad11610071578063e64559ad146103d8578063e71ad4a7146103e1578063f63bfe68146103ea578063fea4c5411461040a57600080fd5b8063cfad57a214610392578063cfed246b146103a5578063d17f6781146103c557600080fd5b8063a6eca896116100d3578063a6eca89614610340578063ab37f48614610349578063bd58fe561461036c578063c18b1d5e1461037f57600080fd5b806376d69760146102e55780638ee573ac146102f85780639a1598c81461032d57600080fd5b80634032b72b1161016657806366870b6d1161014057806366870b6d146102975780636ba42aaa146102a057806374bfed89146102d3578063763225c7146102dc57600080fd5b80634032b72b1461026857806341ce15c21461027b5780634352fa9f1461028457600080fd5b8063126082cf116101a2578063126082cf146101f657806312d43a51146101ff5780632ae3c3481461022a578063343e28741461025357600080fd5b806303cd2571146101c957806305c552d8146101e55780630957aed9146101ee575b600080fd5b6101d260065481565b6040519081526020015b60405180910390f35b6101d260015481565b6101d2603281565b6101d261271081565b600054610212906001600160a01b031681565b6040516001600160a01b0390911681526020016101dc565b610212610238366004610cc8565b600b602052600090815260409020546001600160a01b031681565b610266610261366004610cea565b61041d565b005b610266610276366004610cc8565b61059b565b6101d260025481565b610266610292366004610d69565b6105e9565b6101d2610e1081565b6102c36102ae366004610cc8565b600c6020526000908152604090205460ff1681565b60405190151581526020016101dc565b6101d260035481565b6101d261012c81565b6101d26102f3366004610dd5565b6107d5565b61031b610306366004610cc8565b60096020526000908152604090205460ff1681565b60405160ff90911681526020016101dc565b61026661033b366004610cc8565b61090b565b6101d260045481565b6102c3610357366004610cc8565b60086020526000908152604090205460ff1681565b6101d261037a366004610cc8565b610957565b600754610212906001600160a01b031681565b6102666103a0366004610cc8565b610abd565b6101d26103b3366004610cc8565b600a6020526000908152604090205481565b6102666103d3366004610e11565b610b2f565b6101d260055481565b6101d261c35081565b6101d26103f8366004610cc8565b600d6020526000908152604090205481565b610266610418366004610eab565b610c02565b6000546001600160a01b031633146104505760405162461bcd60e51b815260040161044790610ec4565b60405180910390fd5b6001600160a01b0381166104a65760405162461bcd60e51b815260206004820152601b60248201527f5072696365466565643a3a696e76616c696450726963654665656400000000006044820152606401610447565b6001600160a01b038083166000908152600860209081526040808320805460ff19166001179055600b825280832080549486166001600160a01b031990951685179055805163313ce56760e01b8152905192939263313ce567926004808401939192918290030181865afa158015610522573d6000803e3d6000fd5b505050506040513d601f19601f820116820180604052508101906105469190610efb565b6001600160a01b038416600081815260096020526040808220805460ff191660ff86161790555192935090917f784c8f4dbf0ffedd6e72c76501c545a70f8b203b30a26ce542bf92ba87c248a49190a2505050565b6000546001600160a01b031633146105c55760405162461bcd60e51b815260040161044790610ec4565b6001600160a01b03166000908152600c60205260409020805460ff19166001179055565b336000908152600c602052604090205460ff166106185760405162461bcd60e51b815260040161044790610f1e565b428382146106525760405162461bcd60e51b8152602060048201526007602482015266042d8cadccee8d60cb1b6044820152606401610447565b60005b848110156107cd57600086868381811061067157610671610f60565b90506020020160208101906106869190610cc8565b6001600160a01b03811660009081526008602052604090205490915060ff166106f15760405162461bcd60e51b815260206004820152601c60248201527f466173745072696365466565643a3a556e6b6e6f776e20746f6b656e000000006044820152606401610447565b61073685858481811061070657610706610f60565b6001600160a01b038516600090815260096020908152604090912054910292909201359160ff169050600c610c31565b6001600160a01b0382166000818152600a6020908152604080832094909455600d9052919091208490557fd9359f6744c286382115ed720fc5e2e5da40d7aa33113ed0f1a3a4557c87ae4086868581811061079357610793610f60565b90506020020135856040516107b2929190918252602082015260400190565b60405180910390a250806107c581610f8c565b915050610655565b505050505050565b6001600160a01b0382166000908152600a6020908152604080832054600d909252822054600061080486610957565b9050600554826108149190610fa5565b421115610832576108288160045487610c65565b9350505050610905565b60065461083f9083610fa5565b421115610853576108288160035487610c65565b82600003610865579250610905915050565b600081841161089a57816108798582610fb8565b61088b90670de0b6b3a7640000610fcb565b6108959190610fe2565b6108c1565b816108a58186610fb8565b6108b790670de0b6b3a7640000610fcb565b6108c19190610fe2565b600154909150811180156108fd5786156108f0578483116108e257846108e4565b825b95505050505050610905565b8483106108e257846108e4565b509293505050505b92915050565b6000546001600160a01b031633146109355760405162461bcd60e51b815260040161044790610ec4565b600780546001600160a01b0319166001600160a01b0392909216919091179055565b6001600160a01b038082166000908152600b6020526040808220548151633fabe5a360e21b81529151929316918391829182918291869163feaf968c9160048083019260a09291908290030181865afa1580156109b8573d6000803e3d6000fd5b505050506040513d601f19601f820116820180604052508101906109dc919061101e565b9450945050935093508369ffffffffffffffffffff168169ffffffffffffffffffff161015610a415760405162461bcd60e51b815260206004820152601160248201527021a7a09d1029ba30b6329030b739bbb2b960791b6044820152606401610447565b81600003610a895760405162461bcd60e51b8152602060048201526015602482015274434f413a20526f756e6420696e636f6d706c65746560581b6044820152606401610447565b6001600160a01b038716600090815260096020526040902054610ab290849060ff16600c610c31565b979650505050505050565b6000546001600160a01b03163314610ae75760405162461bcd60e51b815260040161044790610ec4565b600080546001600160a01b0319166001600160a01b038316908117825560405190917f91a8c1cc2d4a3bb60738481947a00cbb9899c822916694cf8bb1d68172fdcd5491a250565b336000908152600c602052604090205460ff16610b5e5760405162461bcd60e51b815260040161044790610f1e565b610b6a868686866105e9565b60005b81811015610bf9576007546001600160a01b0316637e498c81848484818110610b9857610b98610f60565b6040516001600160e01b031960e086901b16815260209091029290920135600483015250336024820152604401600060405180830381600087803b158015610bdf57600080fd5b505af1925050508015610bf0575060015b50600101610b6d565b50505050505050565b6000546001600160a01b03163314610c2c5760405162461bcd60e51b815260040161044790610ec4565b600155565b6000610c3e83600a611152565b610c4983600a611152565b610c539086610fcb565b610c5d9190610fe2565b949350505050565b60008082610c7e57610c7984612710610fb8565b610c8a565b610c8a84612710610fa5565b9050612710610c998287610fcb565b610ca39190610fe2565b95945050505050565b80356001600160a01b0381168114610cc357600080fd5b919050565b600060208284031215610cda57600080fd5b610ce382610cac565b9392505050565b60008060408385031215610cfd57600080fd5b610d0683610cac565b9150610d1460208401610cac565b90509250929050565b60008083601f840112610d2f57600080fd5b50813567ffffffffffffffff811115610d4757600080fd5b6020830191508360208260051b8501011115610d6257600080fd5b9250929050565b60008060008060408587031215610d7f57600080fd5b843567ffffffffffffffff80821115610d9757600080fd5b610da388838901610d1d565b90965094506020870135915080821115610dbc57600080fd5b50610dc987828801610d1d565b95989497509550505050565b60008060408385031215610de857600080fd5b610df183610cac565b915060208301358015158114610e0657600080fd5b809150509250929050565b60008060008060008060608789031215610e2a57600080fd5b863567ffffffffffffffff80821115610e4257600080fd5b610e4e8a838b01610d1d565b90985096506020890135915080821115610e6757600080fd5b610e738a838b01610d1d565b90965094506040890135915080821115610e8c57600080fd5b50610e9989828a01610d1d565b979a9699509497509295939492505050565b600060208284031215610ebd57600080fd5b5035919050565b6020808252601f908201527f54726164696e67456e67696e655072696365466565643a3a6f6e6c79476f7600604082015260600190565b600060208284031215610f0d57600080fd5b815160ff81168114610ce357600080fd5b60208082526022908201527f54726164696e67456e67696e655072696365466565643a3a6f6e6c794b65657060408201526132b960f11b606082015260800190565b634e487b7160e01b600052603260045260246000fd5b634e487b7160e01b600052601160045260246000fd5b600060018201610f9e57610f9e610f76565b5060010190565b8082018082111561090557610905610f76565b8181038181111561090557610905610f76565b808202811582820484141761090557610905610f76565b600082610fff57634e487b7160e01b600052601260045260246000fd5b500490565b805169ffffffffffffffffffff81168114610cc357600080fd5b600080600080600060a0868803121561103657600080fd5b61103f86611004565b945060208601519350604086015192506060860151915061106260808701611004565b90509295509295909350565b600181815b808511156110a957816000190482111561108f5761108f610f76565b8085161561109c57918102915b93841c9390800290611073565b509250929050565b6000826110c057506001610905565b816110cd57506000610905565b81600181146110e357600281146110ed57611109565b6001915050610905565b60ff8411156110fe576110fe610f76565b50506001821b610905565b5060208310610133831016604e8410600b841016171561112c575081810a610905565b611136838361106e565b806000190482111561114a5761114a610f76565b029392505050565b6000610ce383836110b156fea2646970667358221220fc0a1b4f0fc77a933abaefe29da16028846ea90e3edbb0deff830f0a09a0ef0c64736f6c63430008120033",
    "linkReferences": {}
  },
  "methodIdentifiers": {
    "BASIS_POINTS_DIVISOR()": "126082cf",
    "MAX_SPREAD_BASIS_POINTS()": "0957aed9",
    "PRICE_FEED_ERROR()": "66870b6d",
    "PRICE_FEED_ERROR_SPREAD()": "e71ad4a7",
    "PRICE_FEED_INACTIVE()": "763225c7",
    "addKeeper(address)": "4032b72b",
    "chainLinkFeeds(address)": "2ae3c348",
    "defaultSpread()": "41ce15c2",
    "getChainlinkPrice(address)": "bd58fe56",
    "getPrice(address,bool)": "76d69760",
    "gov()": "12d43a51",
    "isKeeper(address)": "6ba42aaa",
    "isWhitelistedToken(address)": "ab37f486",
    "lastUpdatedTimestamp(address)": "f63bfe68",
    "maxPriceDiff()": "05c552d8",
    "maxPriceUpdateDelay()": "e64559ad",
    "orderbook()": "c18b1d5e",
    "priceDuration()": "03cd2571",
    "prices(address)": "cfed246b",
    "setGov(address)": "cfad57a2",
    "setMaxPriceDiff(uint256)": "fea4c541",
    "setOrderBook(address)": "9a1598c8",
    "setPrices(address[],uint256[])": "4352fa9f",
    "setPricesAndExecuteOrders(address[],uint256[],uint256[])": "d17f6781",
    "setTokenConfig(address,address)": "343e2874",
    "spreadBasisPointsIfChainError()": "a6eca896",
    "spreadBasisPointsIfInactive()": "74bfed89",
    "tokenDecimals(address)": "8ee573ac"
  },
  "id": 47
}