{
  "abi": [
    {
      "inputs": [
        {
          "internalType": "address",
          "name": "_asset",
          "type": "address"
        },
        {
          "internalType": "address",
          "name": "_tradingEngine",
          "type": "address"
        }
      ],
      "stateMutability": "nonpayable",
      "type": "constructor"
    },
    {
      "anonymous": false,
      "inputs": [
        {
          "indexed": true,
          "internalType": "address",
          "name": "owner",
          "type": "address"
        },
        {
          "indexed": true,
          "internalType": "address",
          "name": "spender",
          "type": "address"
        },
        {
          "indexed": false,
          "internalType": "uint256",
          "name": "value",
          "type": "uint256"
        }
      ],
      "name": "Approval",
      "type": "event"
    },
    {
      "anonymous": false,
      "inputs": [
        {
          "indexed": true,
          "internalType": "address",
          "name": "previousOwner",
          "type": "address"
        },
        {
          "indexed": true,
          "internalType": "address",
          "name": "newOwner",
          "type": "address"
        }
      ],
      "name": "OwnershipTransferred",
      "type": "event"
    },
    {
      "anonymous": false,
      "inputs": [
        {
          "indexed": false,
          "internalType": "address",
          "name": "account",
          "type": "address"
        }
      ],
      "name": "Paused",
      "type": "event"
    },
    {
      "anonymous": false,
      "inputs": [
        {
          "indexed": true,
          "internalType": "address",
          "name": "from",
          "type": "address"
        },
        {
          "indexed": true,
          "internalType": "address",
          "name": "to",
          "type": "address"
        },
        {
          "indexed": false,
          "internalType": "uint256",
          "name": "value",
          "type": "uint256"
        }
      ],
      "name": "Transfer",
      "type": "event"
    },
    {
      "anonymous": false,
      "inputs": [
        {
          "indexed": false,
          "internalType": "address",
          "name": "account",
          "type": "address"
        }
      ],
      "name": "Unpaused",
      "type": "event"
    },
    {
      "inputs": [],
      "name": "MAX_BPS_EXTENDED",
      "outputs": [
        {
          "internalType": "uint256",
          "name": "",
          "type": "uint256"
        }
      ],
      "stateMutability": "view",
      "type": "function"
    },
    {
      "inputs": [
        {
          "internalType": "address",
          "name": "owner",
          "type": "address"
        },
        {
          "internalType": "address",
          "name": "spender",
          "type": "address"
        }
      ],
      "name": "allowance",
      "outputs": [
        {
          "internalType": "uint256",
          "name": "",
          "type": "uint256"
        }
      ],
      "stateMutability": "view",
      "type": "function"
    },
    {
      "inputs": [
        {
          "internalType": "address",
          "name": "spender",
          "type": "address"
        },
        {
          "internalType": "uint256",
          "name": "amount",
          "type": "uint256"
        }
      ],
      "name": "approve",
      "outputs": [
        {
          "internalType": "bool",
          "name": "",
          "type": "bool"
        }
      ],
      "stateMutability": "nonpayable",
      "type": "function"
    },
    {
      "inputs": [],
      "name": "asset",
      "outputs": [
        {
          "internalType": "address",
          "name": "",
          "type": "address"
        }
      ],
      "stateMutability": "view",
      "type": "function"
    },
    {
      "inputs": [
        {
          "internalType": "address",
          "name": "account",
          "type": "address"
        }
      ],
      "name": "balanceOf",
      "outputs": [
        {
          "internalType": "uint256",
          "name": "",
          "type": "uint256"
        }
      ],
      "stateMutability": "view",
      "type": "function"
    },
    {
      "inputs": [],
      "name": "decimals",
      "outputs": [
        {
          "internalType": "uint8",
          "name": "",
          "type": "uint8"
        }
      ],
      "stateMutability": "view",
      "type": "function"
    },
    {
      "inputs": [
        {
          "internalType": "address",
          "name": "spender",
          "type": "address"
        },
        {
          "internalType": "uint256",
          "name": "subtractedValue",
          "type": "uint256"
        }
      ],
      "name": "decreaseAllowance",
      "outputs": [
        {
          "internalType": "bool",
          "name": "",
          "type": "bool"
        }
      ],
      "stateMutability": "nonpayable",
      "type": "function"
    },
    {
      "inputs": [
        {
          "internalType": "uint256",
          "name": "_amount",
          "type": "uint256"
        },
        {
          "internalType": "address",
          "name": "_receiver",
          "type": "address"
        }
      ],
      "name": "deposit",
      "outputs": [
        {
          "internalType": "uint256",
          "name": "",
          "type": "uint256"
        }
      ],
      "stateMutability": "nonpayable",
      "type": "function"
    },
    {
      "inputs": [],
      "name": "distributePnl",
      "outputs": [],
      "stateMutability": "nonpayable",
      "type": "function"
    },
    {
      "inputs": [],
      "name": "getAmountInAndUpdateVaultBalance",
      "outputs": [
        {
          "internalType": "uint256",
          "name": "",
          "type": "uint256"
        }
      ],
      "stateMutability": "nonpayable",
      "type": "function"
    },
    {
      "inputs": [],
      "name": "getFullProfitUnlockDate",
      "outputs": [
        {
          "internalType": "uint256",
          "name": "",
          "type": "uint256"
        }
      ],
      "stateMutability": "view",
      "type": "function"
    },
    {
      "inputs": [
        {
          "internalType": "address",
          "name": "spender",
          "type": "address"
        },
        {
          "internalType": "uint256",
          "name": "addedValue",
          "type": "uint256"
        }
      ],
      "name": "increaseAllowance",
      "outputs": [
        {
          "internalType": "bool",
          "name": "",
          "type": "bool"
        }
      ],
      "stateMutability": "nonpayable",
      "type": "function"
    },
    {
      "inputs": [],
      "name": "lastProfitUpdate",
      "outputs": [
        {
          "internalType": "uint256",
          "name": "",
          "type": "uint256"
        }
      ],
      "stateMutability": "view",
      "type": "function"
    },
    {
      "inputs": [],
      "name": "name",
      "outputs": [
        {
          "internalType": "string",
          "name": "",
          "type": "string"
        }
      ],
      "stateMutability": "view",
      "type": "function"
    },
    {
      "inputs": [],
      "name": "owner",
      "outputs": [
        {
          "internalType": "address",
          "name": "",
          "type": "address"
        }
      ],
      "stateMutability": "view",
      "type": "function"
    },
    {
      "inputs": [],
      "name": "paused",
      "outputs": [
        {
          "internalType": "bool",
          "name": "",
          "type": "bool"
        }
      ],
      "stateMutability": "view",
      "type": "function"
    },
    {
      "inputs": [
        {
          "internalType": "uint256",
          "name": "_amount",
          "type": "uint256"
        },
        {
          "internalType": "address",
          "name": "_receiver",
          "type": "address"
        }
      ],
      "name": "payout",
      "outputs": [],
      "stateMutability": "nonpayable",
      "type": "function"
    },
    {
      "inputs": [],
      "name": "pricePerShare",
      "outputs": [
        {
          "internalType": "uint256",
          "name": "",
          "type": "uint256"
        }
      ],
      "stateMutability": "view",
      "type": "function"
    },
    {
      "inputs": [
        {
          "internalType": "uint256",
          "name": "_delta",
          "type": "uint256"
        }
      ],
      "name": "realizeLoss",
      "outputs": [],
      "stateMutability": "nonpayable",
      "type": "function"
    },
    {
      "inputs": [
        {
          "internalType": "uint256",
          "name": "_delta",
          "type": "uint256"
        }
      ],
      "name": "realizeProfit",
      "outputs": [],
      "stateMutability": "nonpayable",
      "type": "function"
    },
    {
      "inputs": [],
      "name": "realizedLoss",
      "outputs": [
        {
          "internalType": "uint256",
          "name": "",
          "type": "uint256"
        }
      ],
      "stateMutability": "view",
      "type": "function"
    },
    {
      "inputs": [],
      "name": "realizedProfit",
      "outputs": [
        {
          "internalType": "uint256",
          "name": "",
          "type": "uint256"
        }
      ],
      "stateMutability": "view",
      "type": "function"
    },
    {
      "inputs": [
        {
          "internalType": "uint256",
          "name": "_shares",
          "type": "uint256"
        },
        {
          "internalType": "address",
          "name": "_receiver",
          "type": "address"
        }
      ],
      "name": "redeem",
      "outputs": [
        {
          "internalType": "uint256",
          "name": "",
          "type": "uint256"
        }
      ],
      "stateMutability": "nonpayable",
      "type": "function"
    },
    {
      "inputs": [],
      "name": "renounceOwnership",
      "outputs": [],
      "stateMutability": "nonpayable",
      "type": "function"
    },
    {
      "inputs": [
        {
          "internalType": "uint256",
          "name": "_cap",
          "type": "uint256"
        }
      ],
      "name": "setDepositCap",
      "outputs": [],
      "stateMutability": "nonpayable",
      "type": "function"
    },
    {
      "inputs": [],
      "name": "settledLoss",
      "outputs": [
        {
          "internalType": "uint256",
          "name": "",
          "type": "uint256"
        }
      ],
      "stateMutability": "view",
      "type": "function"
    },
    {
      "inputs": [],
      "name": "settledProfit",
      "outputs": [
        {
          "internalType": "uint256",
          "name": "",
          "type": "uint256"
        }
      ],
      "stateMutability": "view",
      "type": "function"
    },
    {
      "inputs": [],
      "name": "stableVault",
      "outputs": [
        {
          "internalType": "address",
          "name": "",
          "type": "address"
        }
      ],
      "stateMutability": "view",
      "type": "function"
    },
    {
      "inputs": [],
      "name": "symbol",
      "outputs": [
        {
          "internalType": "string",
          "name": "",
          "type": "string"
        }
      ],
      "stateMutability": "view",
      "type": "function"
    },
    {
      "inputs": [],
      "name": "totalAssets",
      "outputs": [
        {
          "internalType": "uint256",
          "name": "",
          "type": "uint256"
        }
      ],
      "stateMutability": "view",
      "type": "function"
    },
    {
      "inputs": [],
      "name": "totalManagedAssets",
      "outputs": [
        {
          "internalType": "uint256",
          "name": "",
          "type": "uint256"
        }
      ],
      "stateMutability": "view",
      "type": "function"
    },
    {
      "inputs": [],
      "name": "totalSupply",
      "outputs": [
        {
          "internalType": "uint256",
          "name": "",
          "type": "uint256"
        }
      ],
      "stateMutability": "view",
      "type": "function"
    },
    {
      "inputs": [],
      "name": "tradingEngine",
      "outputs": [
        {
          "internalType": "contract ITradingEngine",
          "name": "",
          "type": "address"
        }
      ],
      "stateMutability": "view",
      "type": "function"
    },
    {
      "inputs": [
        {
          "internalType": "address",
          "name": "to",
          "type": "address"
        },
        {
          "internalType": "uint256",
          "name": "amount",
          "type": "uint256"
        }
      ],
      "name": "transfer",
      "outputs": [
        {
          "internalType": "bool",
          "name": "",
          "type": "bool"
        }
      ],
      "stateMutability": "nonpayable",
      "type": "function"
    },
    {
      "inputs": [
        {
          "internalType": "address",
          "name": "from",
          "type": "address"
        },
        {
          "internalType": "address",
          "name": "to",
          "type": "address"
        },
        {
          "internalType": "uint256",
          "name": "amount",
          "type": "uint256"
        }
      ],
      "name": "transferFrom",
      "outputs": [
        {
          "internalType": "bool",
          "name": "",
          "type": "bool"
        }
      ],
      "stateMutability": "nonpayable",
      "type": "function"
    },
    {
      "inputs": [
        {
          "internalType": "address",
          "name": "newOwner",
          "type": "address"
        }
      ],
      "name": "transferOwnership",
      "outputs": [],
      "stateMutability": "nonpayable",
      "type": "function"
    },
    {
      "inputs": [
        {
          "internalType": "bool",
          "name": "hasProfit",
          "type": "bool"
        },
        {
          "internalType": "uint256",
          "name": "_delta",
          "type": "uint256"
        }
      ],
      "name": "updateRealizedPnl",
      "outputs": [],
      "stateMutability": "nonpayable",
      "type": "function"
    },
    {
      "inputs": [
        {
          "internalType": "uint256",
          "name": "_amount",
          "type": "uint256"
        },
        {
          "internalType": "address",
          "name": "_receiver",
          "type": "address"
        }
      ],
      "name": "withdraw",
      "outputs": [
        {
          "internalType": "uint256",
          "name": "",
          "type": "uint256"
        }
      ],
      "stateMutability": "nonpayable",
      "type": "function"
    }
  ],
  "bytecode": {
    "object": "0x60c06040523480156200001157600080fd5b50604051620025ad380380620025ad8339810160408190526200003491620001cb565b6040518060400160405280600681526020016513585c9ad95d60d21b8152506040518060400160405280600681526020016513505492d15560d21b8152508160039081620000839190620002a8565b506004620000928282620002a8565b50506001600555506006805460ff19169055620000af3362000154565b6001600160a01b03821660808190526040805163313ce56760e01b8152905163313ce567916004808201926020929091908290030181865afa158015620000fa573d6000803e3d6000fd5b505050506040513d601f19601f8201168201806040525081019062000120919062000374565b60ff1660a05262093a80601055601380546001600160a01b0319166001600160a01b039290921691909117905550620003a0565b600680546001600160a01b03838116610100818102610100600160a81b031985161790945560405193909204169182907f8be0079c531659141344cd1fd0a4f28419497f9722a3daafe3b4186f6b6457e090600090a35050565b80516001600160a01b0381168114620001c657600080fd5b919050565b60008060408385031215620001df57600080fd5b620001ea83620001ae565b9150620001fa60208401620001ae565b90509250929050565b634e487b7160e01b600052604160045260246000fd5b600181811c908216806200022e57607f821691505b6020821081036200024f57634e487b7160e01b600052602260045260246000fd5b50919050565b601f821115620002a357600081815260208120601f850160051c810160208610156200027e5750805b601f850160051c820191505b818110156200029f578281556001016200028a565b5050505b505050565b81516001600160401b03811115620002c457620002c462000203565b620002dc81620002d5845462000219565b8462000255565b602080601f831160018114620003145760008415620002fb5750858301515b600019600386901b1c1916600185901b1785556200029f565b600085815260208120601f198616915b82811015620003455788860151825594840194600190910190840162000324565b5085821015620003645787850151600019600388901b60f8161c191681555b5050505050600190811b01905550565b6000602082840312156200038757600080fd5b815160ff811681146200039957600080fd5b9392505050565b60805160a0516121a862000405600039600081816102d00152610ca401526000818161030b01528181610535015281816105e50152818161098c015281816109fe01528181610b2c01528181610bd301528181610ebe015261115001526121a86000f3fe608060405234801561001057600080fd5b50600436106102315760003560e01c8063715018a61161013057806395d89b41116100b8578063be95e01a1161007c578063be95e01a14610499578063c27c3908146104ac578063dd62ed3e146104b5578063e2212a74146104c8578063f2fde38b146104db57600080fd5b806395d89b411461045057806399530b0614610458578063a457c2d714610460578063a9059cbb14610473578063ae6754db1461048657600080fd5b806386651203116100ff57806386651203146104025780638afca8f0146104155780638da5cb5b1461041e57806392f64bd514610434578063959ed32c1461044757600080fd5b8063715018a6146103d6578063738b74f0146103de5780637bde82f2146103e757806385d96602146103fa57600080fd5b806336fba084116101be5780635cfb9fa1116101825780635cfb9fa11461036b578063629bc21f1461037e5780636e553f65146103875780636f42f9c71461039a57806370a08231146103ad57600080fd5b806336fba084146102fa57806338d52e0f14610306578063395093511461034557806350abab79146103585780635c975abb1461036057600080fd5b8063095ea7b311610205578063095ea7b31461028157806318160ddd146102a4578063216ea0c1146102ac57806323b872dd146102b6578063313ce567146102c957600080fd5b8062f714ce1461023657806301e1d1141461025c57806305b2bfb01461026457806306fdde031461026c575b600080fd5b610249610244366004611ddf565b6104ee565b6040519081526020015b60405180910390f35b6102496105be565b6102496105cd565b610274610658565b6040516102539190611e2f565b61029461028f366004611e62565b6106ea565b6040519015158152602001610253565b600254610249565b6102b4610702565b005b6102946102c4366004611e8c565b61086d565b60405160ff7f0000000000000000000000000000000000000000000000000000000000000000168152602001610253565b61024964e8d4a5100081565b61032d7f000000000000000000000000000000000000000000000000000000000000000081565b6040516001600160a01b039091168152602001610253565b610294610353366004611e62565b610893565b601154610249565b60065460ff16610294565b60135461032d906001600160a01b031681565b610249600c5481565b610249610395366004611ddf565b6108b5565b60075461032d906001600160a01b031681565b6102496103bb366004611ec8565b6001600160a01b031660009081526020819052604090205490565b6102b4610a87565b610249600b5481565b6102496103f5366004611ddf565b610a9b565b610249610ab7565b6102b4610410366004611ee3565b610c64565b61024960125481565b60065461010090046001600160a01b031661032d565b6102b4610442366004611ee3565b610c71565b610249600e5481565b610274610c8b565b610249610c9a565b61029461046e366004611e62565b610cd1565b610294610481366004611e62565b610d57565b6102b4610494366004611f0a565b610d65565b6102b46104a7366004611ddf565b610da4565b610249600d5481565b6102496104c3366004611f28565b610ee5565b6102b46104d6366004611ee3565b610f10565b6102b46104e9366004611ec8565b610f22565b60006104f8610f9b565b610500610ff4565b600061050d84600161103a565b9050600061051b8285611089565b601354604051631e66cef560e01b81526001600160a01b037f0000000000000000000000000000000000000000000000000000000000000000811660048301526024820184905260006044830152929350911690631e66cef590606401600060405180830381600087803b15801561059257600080fd5b505af11580156105a6573d6000803e3d6000fd5b50929450505050506105b86001600555565b92915050565b60006105c861117f565b905090565b6040516370a0823160e01b81523060048201526000907f00000000000000000000000000000000000000000000000000000000000000006001600160a01b0316906370a0823190602401602060405180830381865afa158015610634573d6000803e3d6000fd5b505050506040513d601f19601f820116820180604052508101906105c89190611f52565b60606003805461066790611f6b565b80601f016020809104026020016040519081016040528092919081815260200182805461069390611f6b565b80156106e05780601f106106b5576101008083540402835291602001916106e0565b820191906000526020600020905b8154815290600101906020018083116106c357829003601f168201915b5050505050905090565b6000336106f88185856111ef565b5060019392505050565b61070a611313565b600080610715611343565b915091506000821580156107295750600082115b1561073c5761073982600161103a565b90505b600083801561074b5750600083115b1561075d5761075a83306113c1565b90505b30600090815260208190526040812054610778908390611fbb565b905060006107868383611fce565b905083156107d65761079884826114ac565b93506107a484306114c2565b60006107b085856114ac565b90506107bc8185611fbb565b93506107c88186611fbb565b6107d29084611fbb565b9250505b801561085f5760004260115411156107f957426011546107f69190611fbb565b90505b6000826010548661080a9190611fe1565b6108148487611fe1565b61081e9190611fce565b610828919061200e565b90508061083a64e8d4a5100085611fe1565b610844919061200e565b600f556108518142611fce565b601155505042601255610865565b6000600f555b505050505050565b60003361087b8582856114cc565b610886858585611546565b60019150505b9392505050565b6000336106f88185856108a68383610ee5565b6108b09190611fce565b6111ef565b60006108bf610f9b565b6108c7610ff4565b6001600160a01b0382166109225760405162461bcd60e51b815260206004820152601f60248201527f72656365697665722063616e6e6f74206265207a65726f20616464726573730060448201526064015b60405180910390fd5b6008548361092e6105be565b6109389190611fce565b111561097f5760405162461bcd60e51b815260206004820152601660248201527519195c1bdcda5d081b1a5b5a5d08195e18d95959195960521b6044820152606401610919565b6109b46001600160a01b037f0000000000000000000000000000000000000000000000000000000000000000163330866116ea565b82600960008282546109c69190611fce565b9250508190555082600a60008282546109df9190611fce565b9091555050601354604051631e66cef560e01b81526001600160a01b037f000000000000000000000000000000000000000000000000000000000000000081166004830152602482018690526001604483015290911690631e66cef590606401600060405180830381600087803b158015610a5957600080fd5b505af1158015610a6d573d6000803e3d6000fd5b50505050610a7b83836113c1565b90506105b86001600555565b610a8f611755565b610a9960006117b5565b565b6000610aa5610f9b565b610aad610ff4565b610a7b8383611089565b6013546000906001600160a01b03163314610b145760405162461bcd60e51b815260206004820152601a60248201527f5661756c743a206f6e6c792074726164696e6720656e67696e650000000000006044820152606401610919565b6040516370a0823160e01b81523060048201526000907f00000000000000000000000000000000000000000000000000000000000000006001600160a01b0316906370a0823190602401602060405180830381865afa158015610b7b573d6000803e3d6000fd5b505050506040513d601f19601f82011682018060405250810190610b9f9190611f52565b90506000600a5482610bb19190611fbb565b90508015610c5e57601354604051631e66cef560e01b81526001600160a01b037f000000000000000000000000000000000000000000000000000000000000000081166004830152602482018490526001604483015290911690631e66cef590606401600060405180830381600087803b158015610c2e57600080fd5b505af1158015610c42573d6000803e3d6000fd5b5050505080600a6000828254610c589190611fce565b90915550505b91505090565b610c6c611755565b600855565b80600c6000828254610c839190611fce565b909155505050565b60606004805461066790611f6b565b60006105c8610cca7f0000000000000000000000000000000000000000000000000000000000000000600a612114565b600061180f565b60003381610cdf8286610ee5565b905083811015610d3f5760405162461bcd60e51b815260206004820152602560248201527f45524332303a2064656372656173656420616c6c6f77616e63652062656c6f77604482015264207a65726f60d81b6064820152608401610919565b610d4c82868684036111ef565b506001949350505050565b6000336106f8818585611546565b8115610d885780600b6000828254610d7d9190611fce565b90915550610da09050565b80600c6000828254610d9a9190611fce565b90915550505b5050565b6013546001600160a01b03163314610dfe5760405162461bcd60e51b815260206004820152601a60248201527f5661756c743a206f6e6c792074726164696e6720656e67696e650000000000006044820152606401610919565b81600003610e4e5760405162461bcd60e51b815260206004820152601d60248201527f616d6f756e74206d7573742062652067726561746572207468616e20300000006044820152606401610919565b6001600160a01b038116610e905760405162461bcd60e51b815260206004820152600960248201526806164647265737320360bc1b6044820152606401610919565b610e9982610c71565b81600a6000828254610eab9190611fbb565b90915550610da090506001600160a01b037f0000000000000000000000000000000000000000000000000000000000000000168284611842565b6001600160a01b03918216600090815260016020908152604080832093909416825291909152205490565b80600b6000828254610c839190611fce565b610f2a611755565b6001600160a01b038116610f8f5760405162461bcd60e51b815260206004820152602660248201527f4f776e61626c653a206e6577206f776e657220697320746865207a65726f206160448201526564647265737360d01b6064820152608401610919565b610f98816117b5565b50565b600260055403610fed5760405162461bcd60e51b815260206004820152601f60248201527f5265656e7472616e637947756172643a207265656e7472616e742063616c6c006044820152606401610919565b6002600555565b60065460ff1615610a995760405162461bcd60e51b815260206004820152601060248201526f14185d5cd8589b194e881c185d5cd95960821b6044820152606401610919565b60008061104660025490565b905060006110526105be565b90508060000361107457811561106957600061106b565b845b925050506105b8565b61108085838387611877565b95945050505050565b33600090815260208190526040812054600084116110da5760405162461bcd60e51b815260206004820152600e60248201526d125b9d985b1a5908185b5bdd5b9d60921b6044820152606401610919565b6000811161112a5760405162461bcd60e51b815260206004820152601d60248201527f696e73756666696369656e742073686172657320746f2072656465656d0000006044820152606401610919565b600061113785600061180f565b905061114385336114c2565b6111776001600160a01b037f0000000000000000000000000000000000000000000000000000000000000000168583611842565b949350505050565b600073__$400823e66b9a1b101ad801a2ac7c4b568a$__6321092f44600d546009546111ab9190611fce565b600e546040516001600160e01b031960e085901b16815260048101929092526024820152604401602060405180830381865af4158015610634573d6000803e3d6000fd5b6001600160a01b0383166112515760405162461bcd60e51b8152602060048201526024808201527f45524332303a20617070726f76652066726f6d20746865207a65726f206164646044820152637265737360e01b6064820152608401610919565b6001600160a01b0382166112b25760405162461bcd60e51b815260206004820152602260248201527f45524332303a20617070726f766520746f20746865207a65726f206164647265604482015261737360f01b6064820152608401610919565b6001600160a01b0383811660008181526001602090815260408083209487168084529482529182902085905590518481527f8c5be1e5ebec7d5bd14f71427d1e84f3dd0314c0f7b2291e5b200ac8c7c3b925910160405180910390a3505050565b600061131d6118d2565b90508060000361132a5750565b42601154111561133957426012555b610f98308261192e565b600080600b54600d600082825461135a9190611fce565b9091555050600c54600e8054600090611374908490611fce565b9091555050600c54600b5411156113a05760019150600c54600b546113999190611fbb565b90506113b3565b600b54600c546113b09190611fbb565b90505b6000600b819055600c559091565b6000806113cd60025490565b905060006113d96105be565b90506000826000036113ec575084611452565b858211156114115761140a836114028885611fbb565b889190611a60565b9050611452565b8186106114525760405162461bcd60e51b815260206004820152600f60248201526e0c2dadeeadce840e8dede40d0d2ced608b1b6044820152606401610919565b600081116114a25760405162461bcd60e51b815260206004820152601d60248201527f736861726573206d7573742062652067726561746572207468616e20300000006044820152606401610919565b6110808582611b0f565b60008183106114bb578161088c565b5090919050565b610da0818361192e565b60006114d88484610ee5565b9050600019811461154057818110156115335760405162461bcd60e51b815260206004820152601d60248201527f45524332303a20696e73756666696369656e7420616c6c6f77616e63650000006044820152606401610919565b61154084848484036111ef565b50505050565b6001600160a01b0383166115aa5760405162461bcd60e51b815260206004820152602560248201527f45524332303a207472616e736665722066726f6d20746865207a65726f206164604482015264647265737360d81b6064820152608401610919565b6001600160a01b03821661160c5760405162461bcd60e51b815260206004820152602360248201527f45524332303a207472616e7366657220746f20746865207a65726f206164647260448201526265737360e81b6064820152608401610919565b6001600160a01b038316600090815260208190526040902054818110156116845760405162461bcd60e51b815260206004820152602660248201527f45524332303a207472616e7366657220616d6f756e7420657863656564732062604482015265616c616e636560d01b6064820152608401610919565b6001600160a01b03848116600081815260208181526040808320878703905593871680835291849020805487019055925185815290927fddf252ad1be2c89b69c2b068fc378daa952ba7f163c4a11628f55a4df523b3ef910160405180910390a3611540565b6040516001600160a01b03808516602483015283166044820152606481018290526115409085906323b872dd60e01b906084015b60408051601f198184030181529190526020810180516001600160e01b03166001600160e01b031990931692909217909152611bce565b6006546001600160a01b03610100909104163314610a995760405162461bcd60e51b815260206004820181905260248201527f4f776e61626c653a2063616c6c6572206973206e6f7420746865206f776e65726044820152606401610919565b600680546001600160a01b03838116610100818102610100600160a81b031985161790945560405193909204169182907f8be0079c531659141344cd1fd0a4f28419497f9722a3daafe3b4186f6b6457e090600090a35050565b60008061181b60025490565b90508060000361182e57839150506105b8565b6111776118396105be565b85908386611877565b6040516001600160a01b03831660248201526044810182905261187290849063a9059cbb60e01b9060640161171e565b505050565b600080611885868686611a60565b9050600183600281111561189b5761189b612123565b1480156118b85750600084806118b3576118b3611ff8565b868809115b15611080576118c8600182611fce565b9695505050505050565b60115460009081428211156119135764e8d4a51000601254426118f59190611fbb565b600f546119029190611fe1565b61190c919061200e565b9050610c5e565b8115610c5e573060009081526020819052604090205461088c565b6001600160a01b03821661198e5760405162461bcd60e51b815260206004820152602160248201527f45524332303a206275726e2066726f6d20746865207a65726f206164647265736044820152607360f81b6064820152608401610919565b6001600160a01b03821660009081526020819052604090205481811015611a025760405162461bcd60e51b815260206004820152602260248201527f45524332303a206275726e20616d6f756e7420657863656564732062616c616e604482015261636560f01b6064820152608401610919565b6001600160a01b0383166000818152602081815260408083208686039055600280548790039055518581529192917fddf252ad1be2c89b69c2b068fc378daa952ba7f163c4a11628f55a4df523b3ef910160405180910390a3505050565b6000808060001985870985870292508281108382030391505080600003611a9a57838281611a9057611a90611ff8565b049250505061088c565b808411611aa657600080fd5b60008486880960026001871981018816978890046003810283188082028403028082028403028082028403028082028403028082028403029081029092039091026000889003889004909101858311909403939093029303949094049190911702949350505050565b6001600160a01b038216611b655760405162461bcd60e51b815260206004820152601f60248201527f45524332303a206d696e7420746f20746865207a65726f2061646472657373006044820152606401610919565b8060026000828254611b779190611fce565b90915550506001600160a01b038216600081815260208181526040808320805486019055518481527fddf252ad1be2c89b69c2b068fc378daa952ba7f163c4a11628f55a4df523b3ef910160405180910390a35050565b6000611c23826040518060400160405280602081526020017f5361666545524332303a206c6f772d6c6576656c2063616c6c206661696c6564815250856001600160a01b0316611ca09092919063ffffffff16565b8051909150156118725780806020019051810190611c419190612139565b6118725760405162461bcd60e51b815260206004820152602a60248201527f5361666545524332303a204552433230206f7065726174696f6e20646964206e6044820152691bdd081cdd58d8d9595960b21b6064820152608401610919565b6060611177848460008585600080866001600160a01b03168587604051611cc79190612156565b60006040518083038185875af1925050503d8060008114611d04576040519150601f19603f3d011682016040523d82523d6000602084013e611d09565b606091505b5091509150611d1a87838387611d25565b979650505050505050565b60608315611d94578251600003611d8d576001600160a01b0385163b611d8d5760405162461bcd60e51b815260206004820152601d60248201527f416464726573733a2063616c6c20746f206e6f6e2d636f6e74726163740000006044820152606401610919565b5081611177565b6111778383815115611da95781518083602001fd5b8060405162461bcd60e51b81526004016109199190611e2f565b80356001600160a01b0381168114611dda57600080fd5b919050565b60008060408385031215611df257600080fd5b82359150611e0260208401611dc3565b90509250929050565b60005b83811015611e26578181015183820152602001611e0e565b50506000910152565b6020815260008251806020840152611e4e816040850160208701611e0b565b601f01601f19169190910160400192915050565b60008060408385031215611e7557600080fd5b611e7e83611dc3565b946020939093013593505050565b600080600060608486031215611ea157600080fd5b611eaa84611dc3565b9250611eb860208501611dc3565b9150604084013590509250925092565b600060208284031215611eda57600080fd5b61088c82611dc3565b600060208284031215611ef557600080fd5b5035919050565b8015158114610f9857600080fd5b60008060408385031215611f1d57600080fd5b8235611e7e81611efc565b60008060408385031215611f3b57600080fd5b611f4483611dc3565b9150611e0260208401611dc3565b600060208284031215611f6457600080fd5b5051919050565b600181811c90821680611f7f57607f821691505b602082108103611f9f57634e487b7160e01b600052602260045260246000fd5b50919050565b634e487b7160e01b600052601160045260246000fd5b818103818111156105b8576105b8611fa5565b808201808211156105b8576105b8611fa5565b80820281158282048414176105b8576105b8611fa5565b634e487b7160e01b600052601260045260246000fd5b60008261202b57634e487b7160e01b600052601260045260246000fd5b500490565b600181815b8085111561206b57816000190482111561205157612051611fa5565b8085161561205e57918102915b93841c9390800290612035565b509250929050565b600082612082575060016105b8565b8161208f575060006105b8565b81600181146120a557600281146120af576120cb565b60019150506105b8565b60ff8411156120c0576120c0611fa5565b50506001821b6105b8565b5060208310610133831016604e8410600b84101617156120ee575081810a6105b8565b6120f88383612030565b806000190482111561210c5761210c611fa5565b029392505050565b600061088c60ff841683612073565b634e487b7160e01b600052602160045260246000fd5b60006020828403121561214b57600080fd5b815161088c81611efc565b60008251612168818460208701611e0b565b919091019291505056fea264697066735822122009489a46476db70834701b5507b8318589a4682923e1bc93f0e1c789b1bce77764736f6c63430008120033",
    "linkReferences": {
      "src/common/Math.sol": {
        "Math": [
          {
            "start": 5512,
            "length": 20
          }
        ]
      }
    }
  },
  "methodIdentifiers": {
    "MAX_BPS_EXTENDED()": "36fba084",
    "allowance(address,address)": "dd62ed3e",
    "approve(address,uint256)": "095ea7b3",
    "asset()": "38d52e0f",
    "balanceOf(address)": "70a08231",
    "decimals()": "313ce567",
    "decreaseAllowance(address,uint256)": "a457c2d7",
    "deposit(uint256,address)": "6e553f65",
    "distributePnl()": "216ea0c1",
    "getAmountInAndUpdateVaultBalance()": "85d96602",
    "getFullProfitUnlockDate()": "50abab79",
    "increaseAllowance(address,uint256)": "39509351",
    "lastProfitUpdate()": "8afca8f0",
    "name()": "06fdde03",
    "owner()": "8da5cb5b",
    "paused()": "5c975abb",
    "payout(uint256,address)": "be95e01a",
    "pricePerShare()": "99530b06",
    "realizeLoss(uint256)": "92f64bd5",
    "realizeProfit(uint256)": "e2212a74",
    "realizedLoss()": "629bc21f",
    "realizedProfit()": "738b74f0",
    "redeem(uint256,address)": "7bde82f2",
    "renounceOwnership()": "715018a6",
    "setDepositCap(uint256)": "86651203",
    "settledLoss()": "959ed32c",
    "settledProfit()": "c27c3908",
    "stableVault()": "6f42f9c7",
    "symbol()": "95d89b41",
    "totalAssets()": "01e1d114",
    "totalManagedAssets()": "05b2bfb0",
    "totalSupply()": "18160ddd",
    "tradingEngine()": "5cfb9fa1",
    "transfer(address,uint256)": "a9059cbb",
    "transferFrom(address,address,uint256)": "23b872dd",
    "transferOwnership(address)": "f2fde38b",
    "updateRealizedPnl(bool,uint256)": "ae6754db",
    "withdraw(uint256,address)": "00f714ce"
  },
  "id": 46
}